{
  "contractName": "Ulogin",
  "abi": [
    {
      "anonymous": false,
      "inputs": [
        {
          "indexed": false,
          "internalType": "string",
          "name": "username",
          "type": "string"
        },
        {
          "indexed": false,
          "internalType": "string",
          "name": "email",
          "type": "string"
        },
        {
          "indexed": false,
          "internalType": "string",
          "name": "password",
          "type": "string"
        },
        {
          "indexed": false,
          "internalType": "string",
          "name": "college_name",
          "type": "string"
        },
        {
          "indexed": false,
          "internalType": "string",
          "name": "college_num",
          "type": "string"
        },
        {
          "indexed": false,
          "internalType": "string",
          "name": "secret_key",
          "type": "string"
        }
      ],
      "name": "userCreated",
      "type": "event"
    },
    {
      "inputs": [],
      "name": "userCount",
      "outputs": [
        {
          "internalType": "uint256",
          "name": "",
          "type": "uint256"
        }
      ],
      "stateMutability": "view",
      "type": "function"
    },
    {
      "inputs": [
        {
          "internalType": "string",
          "name": "",
          "type": "string"
        }
      ],
      "name": "usersList",
      "outputs": [
        {
          "internalType": "string",
          "name": "username",
          "type": "string"
        },
        {
          "internalType": "string",
          "name": "email",
          "type": "string"
        },
        {
          "internalType": "string",
          "name": "password",
          "type": "string"
        },
        {
          "internalType": "string",
          "name": "college_name",
          "type": "string"
        },
        {
          "internalType": "string",
          "name": "college_num",
          "type": "string"
        },
        {
          "internalType": "string",
          "name": "secret_key",
          "type": "string"
        }
      ],
      "stateMutability": "view",
      "type": "function"
    },
    {
      "inputs": [
        {
          "internalType": "string",
          "name": "username",
          "type": "string"
        },
        {
          "internalType": "string",
          "name": "email",
          "type": "string"
        },
        {
          "internalType": "string",
          "name": "password",
          "type": "string"
        },
        {
          "internalType": "string",
          "name": "college_name",
          "type": "string"
        },
        {
          "internalType": "string",
          "name": "college_num",
          "type": "string"
        },
        {
          "internalType": "string",
          "name": "secret_key",
          "type": "string"
        }
      ],
      "name": "createUser",
      "outputs": [],
      "stateMutability": "nonpayable",
      "type": "function"
    }
  ],
  "bytecode": "0x60806040526000805534801561001457600080fd5b50610d63806100246000396000f3fe608060405234801561001057600080fd5b50600436106100415760003560e01c806301dadb2b1461004657806307973ccf146100625780634cbce6ac14610080575b600080fd5b610060600480360381019061005b91906106c9565b6100b5565b005b61006a6101e7565b6040516100779190610817565b60405180910390f35b61009a60048036038101906100959190610832565b6101ed565b6040516100ac969594939291906108fa565b60405180910390f35b6000808154809291906100c7906109b4565b91905055506040518060c00160405280878152602001868152602001858152602001848152602001838152602001828152506001866040516101099190610a38565b9081526020016040518091039020600082015181600001908161012c9190610c5b565b5060208201518160010190816101429190610c5b565b5060408201518160020190816101589190610c5b565b50606082015181600301908161016e9190610c5b565b5060808201518160040190816101849190610c5b565b5060a082015181600501908161019a9190610c5b565b509050507fc88faa3718983bab9e8acf1062e8a5130e31ad2a510aaf2dcc623f23d8bb8e738686868686866040516101d7969594939291906108fa565b60405180910390a1505050505050565b60005481565b60018180516020810182018051848252602083016020850120818352809550505050505060009150905080600001805461022690610a7e565b80601f016020809104026020016040519081016040528092919081815260200182805461025290610a7e565b801561029f5780601f106102745761010080835404028352916020019161029f565b820191906000526020600020905b81548152906001019060200180831161028257829003601f168201915b5050505050908060010180546102b490610a7e565b80601f01602080910402602001604051908101604052809291908181526020018280546102e090610a7e565b801561032d5780601f106103025761010080835404028352916020019161032d565b820191906000526020600020905b81548152906001019060200180831161031057829003601f168201915b50505050509080600201805461034290610a7e565b80601f016020809104026020016040519081016040528092919081815260200182805461036e90610a7e565b80156103bb5780601f10610390576101008083540402835291602001916103bb565b820191906000526020600020905b81548152906001019060200180831161039e57829003601f168201915b5050505050908060030180546103d090610a7e565b80601f01602080910402602001604051908101604052809291908181526020018280546103fc90610a7e565b80156104495780601f1061041e57610100808354040283529160200191610449565b820191906000526020600020905b81548152906001019060200180831161042c57829003601f168201915b50505050509080600401805461045e90610a7e565b80601f016020809104026020016040519081016040528092919081815260200182805461048a90610a7e565b80156104d75780601f106104ac576101008083540402835291602001916104d7565b820191906000526020600020905b8154815290600101906020018083116104ba57829003601f168201915b5050505050908060050180546104ec90610a7e565b80601f016020809104026020016040519081016040528092919081815260200182805461051890610a7e565b80156105655780601f1061053a57610100808354040283529160200191610565565b820191906000526020600020905b81548152906001019060200180831161054857829003601f168201915b5050505050905086565b6000604051905090565b600080fd5b600080fd5b600080fd5b600080fd5b6000601f19601f8301169050919050565b7f4e487b7100000000000000000000000000000000000000000000000000000000600052604160045260246000fd5b6105d68261058d565b810181811067ffffffffffffffff821117156105f5576105f461059e565b5b80604052505050565b600061060861056f565b905061061482826105cd565b919050565b600067ffffffffffffffff8211156106345761063361059e565b5b61063d8261058d565b9050602081019050919050565b82818337600083830152505050565b600061066c61066784610619565b6105fe565b90508281526020810184848401111561068857610687610588565b5b61069384828561064a565b509392505050565b600082601f8301126106b0576106af610583565b5b81356106c0848260208601610659565b91505092915050565b60008060008060008060c087890312156106e6576106e5610579565b5b600087013567ffffffffffffffff8111156107045761070361057e565b5b61071089828a0161069b565b965050602087013567ffffffffffffffff8111156107315761073061057e565b5b61073d89828a0161069b565b955050604087013567ffffffffffffffff81111561075e5761075d61057e565b5b61076a89828a0161069b565b945050606087013567ffffffffffffffff81111561078b5761078a61057e565b5b61079789828a0161069b565b935050608087013567ffffffffffffffff8111156107b8576107b761057e565b5b6107c489828a0161069b565b92505060a087013567ffffffffffffffff8111156107e5576107e461057e565b5b6107f189828a0161069b565b9150509295509295509295565b6000819050919050565b610811816107fe565b82525050565b600060208201905061082c6000830184610808565b92915050565b60006020828403121561084857610847610579565b5b600082013567ffffffffffffffff8111156108665761086561057e565b5b6108728482850161069b565b91505092915050565b600081519050919050565b600082825260208201905092915050565b60005b838110156108b557808201518184015260208101905061089a565b60008484015250505050565b60006108cc8261087b565b6108d68185610886565b93506108e6818560208601610897565b6108ef8161058d565b840191505092915050565b600060c082019050818103600083015261091481896108c1565b9050818103602083015261092881886108c1565b9050818103604083015261093c81876108c1565b9050818103606083015261095081866108c1565b9050818103608083015261096481856108c1565b905081810360a083015261097881846108c1565b9050979650505050505050565b7f4e487b7100000000000000000000000000000000000000000000000000000000600052601160045260246000fd5b60006109bf826107fe565b91507fffffffffffffffffffffffffffffffffffffffffffffffffffffffffffffffff82036109f1576109f0610985565b5b600182019050919050565b600081905092915050565b6000610a128261087b565b610a1c81856109fc565b9350610a2c818560208601610897565b80840191505092915050565b6000610a448284610a07565b915081905092915050565b7f4e487b7100000000000000000000000000000000000000000000000000000000600052602260045260246000fd5b60006002820490506001821680610a9657607f821691505b602082108103610aa957610aa8610a4f565b5b50919050565b60008190508160005260206000209050919050565b60006020601f8301049050919050565b600082821b905092915050565b600060088302610b117fffffffffffffffffffffffffffffffffffffffffffffffffffffffffffffffff82610ad4565b610b1b8683610ad4565b95508019841693508086168417925050509392505050565b6000819050919050565b6000610b58610b53610b4e846107fe565b610b33565b6107fe565b9050919050565b6000819050919050565b610b7283610b3d565b610b86610b7e82610b5f565b848454610ae1565b825550505050565b600090565b610b9b610b8e565b610ba6818484610b69565b505050565b5b81811015610bca57610bbf600082610b93565b600181019050610bac565b5050565b601f821115610c0f57610be081610aaf565b610be984610ac4565b81016020851015610bf8578190505b610c0c610c0485610ac4565b830182610bab565b50505b505050565b600082821c905092915050565b6000610c3260001984600802610c14565b1980831691505092915050565b6000610c4b8383610c21565b9150826002028217905092915050565b610c648261087b565b67ffffffffffffffff811115610c7d57610c7c61059e565b5b610c878254610a7e565b610c92828285610bce565b600060209050601f831160018114610cc55760008415610cb3578287015190505b610cbd8582610c3f565b865550610d25565b601f198416610cd386610aaf565b60005b82811015610cfb57848901518255600182019150602085019450602081019050610cd6565b86831015610d185784890151610d14601f891682610c21565b8355505b6001600288020188555050505b50505050505056fea2646970667358221220f7cd8273e636544e05e5ac1b9e333cebbfe9a375b07987b3a9e9cbbc16f13d6e64736f6c63430008110033",
  "immutableReferences": {},
  "source": "// SPDX-License-Identifier: MIT\r\npragma solidity ^0.8.6;\r\n\r\n\r\ncontract Ulogin\r\n{\r\n\tuint public userCount = 0;\r\n\r\n\tmapping(string => user) public usersList;\r\n\r\n\tstruct user\r\n\t{\r\n\tstring username;\r\n\tstring email;\r\n\tstring password;\r\n    string college_name;\r\n    string college_num;\r\n    string secret_key;\r\n\t}\r\n\r\n// events\r\n\r\nevent userCreated(\r\n\tstring username,\r\n\tstring email,\r\n\tstring password,\r\n    string college_name,\r\n    string college_num,\r\n    string secret_key\r\n\t);\r\n\r\nfunction createUser(string memory username,\r\n\t\t\t\t\tstring memory email,\r\n\t\t\t\t\tstring memory password,\r\n                    string memory college_name,\r\n                    string memory college_num,\r\n                    string memory secret_key) public\r\n{\t\r\n\tuserCount++;\r\n\tusersList[email] = user(username,\r\n                            email,\r\n                            password,\r\n                            college_name,\r\n                            college_num,\r\n                            secret_key);\r\n\temit userCreated(username,\r\n                    email,\r\n                    password,\r\n                    college_name,\r\n                    college_num,\r\n                    secret_key);\r\n\t}\r\n}\r\n",
  "sourcePath": "E:\\MajorProject\\Project\\BLOCKCHAIN-QUAILIFIED-VERIFICATION-SYSTEM\\contracts\\Ulogin.sol",
  "compiler": {
    "name": "solc",
    "version": "0.8.17+commit.8df45f5f.Emscripten.clang"
  },
  "schemaVersion": "3.4.9",
  "updatedAt": "2023-10-05T15:49:42.036Z",
  "devdoc": {
    "kind": "dev",
    "methods": {},
    "version": 1
  },
  "userdoc": {
    "kind": "user",
    "methods": {},
    "version": 1
  }
}