{
  "contractName": "Ulogin",
  "abi": [
    {
      "anonymous": false,
      "inputs": [
        {
          "indexed": false,
          "internalType": "string",
          "name": "username",
          "type": "string"
        },
        {
          "indexed": false,
          "internalType": "string",
          "name": "email",
          "type": "string"
        },
        {
          "indexed": false,
          "internalType": "string",
          "name": "password",
          "type": "string"
        },
        {
          "indexed": false,
          "internalType": "string",
          "name": "college_name",
          "type": "string"
        },
        {
          "indexed": false,
          "internalType": "string",
          "name": "college_num",
          "type": "string"
        },
        {
          "indexed": false,
          "internalType": "string",
          "name": "secret_key",
          "type": "string"
        }
      ],
      "name": "userCreated",
      "type": "event"
    },
    {
      "inputs": [],
      "name": "userCount",
      "outputs": [
        {
          "internalType": "uint256",
          "name": "",
          "type": "uint256"
        }
      ],
      "stateMutability": "view",
      "type": "function",
      "constant": true
    },
    {
      "inputs": [
        {
          "internalType": "string",
          "name": "",
          "type": "string"
        }
      ],
      "name": "usersList",
      "outputs": [
        {
          "internalType": "string",
          "name": "username",
          "type": "string"
        },
        {
          "internalType": "string",
          "name": "email",
          "type": "string"
        },
        {
          "internalType": "string",
          "name": "password",
          "type": "string"
        },
        {
          "internalType": "string",
          "name": "college_name",
          "type": "string"
        },
        {
          "internalType": "string",
          "name": "college_num",
          "type": "string"
        },
        {
          "internalType": "string",
          "name": "secret_key",
          "type": "string"
        }
      ],
      "stateMutability": "view",
      "type": "function",
      "constant": true
    },
    {
      "inputs": [
        {
          "internalType": "string",
          "name": "username",
          "type": "string"
        },
        {
          "internalType": "string",
          "name": "email",
          "type": "string"
        },
        {
          "internalType": "string",
          "name": "password",
          "type": "string"
        },
        {
          "internalType": "string",
          "name": "college_name",
          "type": "string"
        },
        {
          "internalType": "string",
          "name": "college_num",
          "type": "string"
        },
        {
          "internalType": "string",
          "name": "secret_key",
          "type": "string"
        }
      ],
      "name": "createUser",
      "outputs": [],
      "stateMutability": "nonpayable",
      "type": "function"
    }
  ],
  "bytecode": "0x60806040526000805534801561001457600080fd5b50610bbb806100246000396000f3fe608060405234801561001057600080fd5b50600436106100415760003560e01c806301dadb2b1461004657806307973ccf146100625780634cbce6ac14610080575b600080fd5b610060600480360381019061005b9190610796565b6100b5565b005b61006a610211565b60405161007791906108e4565b60405180910390f35b61009a600480360381019061009591906108ff565b610217565b6040516100ac969594939291906109d0565b60405180910390f35b6000808154809291906100c790610a8a565b91905055506040518060c00160405280878152602001868152602001858152602001848152602001838152602001828152506001866040516101099190610b0e565b90815260200160405180910390206000820151816000019080519060200190610133929190610599565b506020820151816001019080519060200190610150929190610599565b50604082015181600201908051906020019061016d929190610599565b50606082015181600301908051906020019061018a929190610599565b5060808201518160040190805190602001906101a7929190610599565b5060a08201518160050190805190602001906101c4929190610599565b509050507fc88faa3718983bab9e8acf1062e8a5130e31ad2a510aaf2dcc623f23d8bb8e73868686868686604051610201969594939291906109d0565b60405180910390a1505050505050565b60005481565b60018180516020810182018051848252602083016020850120818352809550505050505060009150905080600001805461025090610b54565b80601f016020809104026020016040519081016040528092919081815260200182805461027c90610b54565b80156102c95780601f1061029e576101008083540402835291602001916102c9565b820191906000526020600020905b8154815290600101906020018083116102ac57829003601f168201915b5050505050908060010180546102de90610b54565b80601f016020809104026020016040519081016040528092919081815260200182805461030a90610b54565b80156103575780601f1061032c57610100808354040283529160200191610357565b820191906000526020600020905b81548152906001019060200180831161033a57829003601f168201915b50505050509080600201805461036c90610b54565b80601f016020809104026020016040519081016040528092919081815260200182805461039890610b54565b80156103e55780601f106103ba576101008083540402835291602001916103e5565b820191906000526020600020905b8154815290600101906020018083116103c857829003601f168201915b5050505050908060030180546103fa90610b54565b80601f016020809104026020016040519081016040528092919081815260200182805461042690610b54565b80156104735780601f1061044857610100808354040283529160200191610473565b820191906000526020600020905b81548152906001019060200180831161045657829003601f168201915b50505050509080600401805461048890610b54565b80601f01602080910402602001604051908101604052809291908181526020018280546104b490610b54565b80156105015780601f106104d657610100808354040283529160200191610501565b820191906000526020600020905b8154815290600101906020018083116104e457829003601f168201915b50505050509080600501805461051690610b54565b80601f016020809104026020016040519081016040528092919081815260200182805461054290610b54565b801561058f5780601f106105645761010080835404028352916020019161058f565b820191906000526020600020905b81548152906001019060200180831161057257829003601f168201915b5050505050905086565b8280546105a590610b54565b90600052602060002090601f0160209004810192826105c7576000855561060e565b82601f106105e057805160ff191683800117855561060e565b8280016001018555821561060e579182015b8281111561060d5782518255916020019190600101906105f2565b5b50905061061b919061061f565b5090565b5b80821115610638576000816000905550600101610620565b5090565b6000604051905090565b600080fd5b600080fd5b600080fd5b600080fd5b6000601f19601f8301169050919050565b7f4e487b7100000000000000000000000000000000000000000000000000000000600052604160045260246000fd5b6106a38261065a565b810181811067ffffffffffffffff821117156106c2576106c161066b565b5b80604052505050565b60006106d561063c565b90506106e1828261069a565b919050565b600067ffffffffffffffff8211156107015761070061066b565b5b61070a8261065a565b9050602081019050919050565b82818337600083830152505050565b6000610739610734846106e6565b6106cb565b90508281526020810184848401111561075557610754610655565b5b610760848285610717565b509392505050565b600082601f83011261077d5761077c610650565b5b813561078d848260208601610726565b91505092915050565b60008060008060008060c087890312156107b3576107b2610646565b5b600087013567ffffffffffffffff8111156107d1576107d061064b565b5b6107dd89828a01610768565b965050602087013567ffffffffffffffff8111156107fe576107fd61064b565b5b61080a89828a01610768565b955050604087013567ffffffffffffffff81111561082b5761082a61064b565b5b61083789828a01610768565b945050606087013567ffffffffffffffff8111156108585761085761064b565b5b61086489828a01610768565b935050608087013567ffffffffffffffff8111156108855761088461064b565b5b61089189828a01610768565b92505060a087013567ffffffffffffffff8111156108b2576108b161064b565b5b6108be89828a01610768565b9150509295509295509295565b6000819050919050565b6108de816108cb565b82525050565b60006020820190506108f960008301846108d5565b92915050565b60006020828403121561091557610914610646565b5b600082013567ffffffffffffffff8111156109335761093261064b565b5b61093f84828501610768565b91505092915050565b600081519050919050565b600082825260208201905092915050565b60005b83811015610982578082015181840152602081019050610967565b83811115610991576000848401525b50505050565b60006109a282610948565b6109ac8185610953565b93506109bc818560208601610964565b6109c58161065a565b840191505092915050565b600060c08201905081810360008301526109ea8189610997565b905081810360208301526109fe8188610997565b90508181036040830152610a128187610997565b90508181036060830152610a268186610997565b90508181036080830152610a3a8185610997565b905081810360a0830152610a4e8184610997565b9050979650505050505050565b7f4e487b7100000000000000000000000000000000000000000000000000000000600052601160045260246000fd5b6000610a95826108cb565b91507fffffffffffffffffffffffffffffffffffffffffffffffffffffffffffffffff8203610ac757610ac6610a5b565b5b600182019050919050565b600081905092915050565b6000610ae882610948565b610af28185610ad2565b9350610b02818560208601610964565b80840191505092915050565b6000610b1a8284610add565b915081905092915050565b7f4e487b7100000000000000000000000000000000000000000000000000000000600052602260045260246000fd5b60006002820490506001821680610b6c57607f821691505b602082108103610b7f57610b7e610b25565b5b5091905056fea2646970667358221220bc98202f9759012e0497423cf24d6863fb34a55056148b27eb88cbc1ce24deeb64736f6c634300080e0033",
  "immutableReferences": {},
  "source": "// SPDX-License-Identifier: MIT\r\npragma solidity ^0.8.6;\r\n\r\n\r\ncontract Ulogin\r\n{\r\n\tuint public userCount = 0;\r\n\r\n\tmapping(string => user) public usersList;\r\n\r\n\tstruct user\r\n\t{\r\n\tstring username;\r\n\tstring email;\r\n\tstring password;\r\n    string college_name;\r\n    string college_num;\r\n    string secret_key;\r\n\t}\r\n\r\n// events\r\n\r\nevent userCreated(\r\n\tstring username,\r\n\tstring email,\r\n\tstring password,\r\n    string college_name,\r\n    string college_num,\r\n    string secret_key\r\n\t);\r\n\r\nfunction createUser(string memory username,\r\n\t\t\t\t\tstring memory email,\r\n\t\t\t\t\tstring memory password,\r\n                    string memory college_name,\r\n                    string memory college_num,\r\n                    string memory secret_key) public\r\n{\t\r\n\tuserCount++;\r\n\tusersList[email] = user(username,\r\n                            email,\r\n                            password,\r\n                            college_name,\r\n                            college_num,\r\n                            secret_key);\r\n\temit userCreated(username,\r\n                    email,\r\n                    password,\r\n                    college_name,\r\n                    college_num,\r\n                    secret_key);\r\n\t}\r\n}\r\n",
  "sourcePath": "E:\\MajorProject\\Project\\BLOCKCHAIN-QUAILIFIED-VERIFICATION-SYSTEM\\frontend\\truffle\\contracts\\Ulogin.sol",
  "compiler": {
    "name": "solc",
    "version": "0.8.14+commit.80d49f37.Emscripten.clang"
  },
  "schemaVersion": "3.4.9",
  "updatedAt": "2023-04-10T09:43:10.616Z",
  "networkType": "ethereum",
  "devdoc": {
    "kind": "dev",
    "methods": {},
    "version": 1
  },
  "userdoc": {
    "kind": "user",
    "methods": {},
    "version": 1
  }
}